{
  "contractName": "CMCOracle",
  "abi": [
    {
      "inputs": [],
      "payable": false,
      "stateMutability": "nonpayable",
      "type": "constructor"
    },
    {
      "anonymous": false,
      "inputs": [],
      "name": "CallbackGetBTCCap",
      "type": "event"
    },
    {
      "constant": true,
      "inputs": [],
      "name": "btcMarketCap",
      "outputs": [
        {
          "internalType": "uint256",
          "name": "",
          "type": "uint256"
        }
      ],
      "payable": false,
      "stateMutability": "view",
      "type": "function"
    },
    {
      "constant": true,
      "inputs": [],
      "name": "owner",
      "outputs": [
        {
          "internalType": "address",
          "name": "",
          "type": "address"
        }
      ],
      "payable": false,
      "stateMutability": "view",
      "type": "function"
    },
    {
      "constant": false,
      "inputs": [],
      "name": "updateBTCCap",
      "outputs": [],
      "payable": false,
      "stateMutability": "nonpayable",
      "type": "function"
    },
    {
      "constant": false,
      "inputs": [
        {
          "internalType": "uint256",
          "name": "cap",
          "type": "uint256"
        }
      ],
      "name": "setBTCCap",
      "outputs": [],
      "payable": false,
      "stateMutability": "nonpayable",
      "type": "function"
    },
    {
      "constant": true,
      "inputs": [],
      "name": "getBTCCap",
      "outputs": [
        {
          "internalType": "uint256",
          "name": "",
          "type": "uint256"
        }
      ],
      "payable": false,
      "stateMutability": "view",
      "type": "function"
    }
  ],
  "bytecode": "0x608060405234801561001057600080fd5b50336000806101000a81548173ffffffffffffffffffffffffffffffffffffffff021916908373ffffffffffffffffffffffffffffffffffffffff160217905550610215806100606000396000f3fe608060405234801561001057600080fd5b50600436106100575760003560e01c80631701af271461005c57806321e79a6914610066578063257db2d7146100845780638da5cb5b146100a2578063f1ffa5bf146100ec575b600080fd5b61006461011a565b005b61006e610148565b6040518082815260200191505060405180910390f35b61008c610152565b6040518082815260200191505060405180910390f35b6100aa610158565b604051808273ffffffffffffffffffffffffffffffffffffffff1673ffffffffffffffffffffffffffffffffffffffff16815260200191505060405180910390f35b6101186004803603602081101561010257600080fd5b810190808035906020019092919050505061017d565b005b7fbc990f6ed9f9b01a5c7a8bc19e4a3c811b42c39a9407311f3101e4c4ba7f13e360405160405180910390a1565b6000600154905090565b60015481565b6000809054906101000a900473ffffffffffffffffffffffffffffffffffffffff1681565b6000809054906101000a900473ffffffffffffffffffffffffffffffffffffffff1673ffffffffffffffffffffffffffffffffffffffff163373ffffffffffffffffffffffffffffffffffffffff16146101d657600080fd5b806001819055505056fea265627a7a7231582059a5caf3cb83eeddf59406e20f31e45e0f4dec77b1eceb92ba6b720d6266a92764736f6c63430005100032",
  "source": "pragma solidity ^0.5.16;\r\n\r\ncontract CMCOracle {\r\n  // Contract owner\r\n  address public owner;\r\n\r\n  // BTC Marketcap Storage\r\n  uint public btcMarketCap;\r\n\r\n  // Callback function\r\n  event CallbackGetBTCCap();\r\n\r\n  constructor() public {\r\n    owner = msg.sender;\r\n  }\r\n\r\n  function updateBTCCap() public {\r\n    // Calls the callback function\r\n    emit CallbackGetBTCCap();\r\n  }\r\n\r\n  function setBTCCap(uint cap) public {\r\n    // If it isn't sent by a trusted oracle\r\n    // a.k.a ourselves, ignore it\r\n    require(msg.sender == owner);\r\n    btcMarketCap = cap;\r\n  }\r\n\r\n  function getBTCCap() view public returns (uint) {\r\n    return btcMarketCap;\r\n  }\r\n}\r\n",
  "sourcePath": "C:\\Users\\aditya\\Projects\\ethoracle-barebones\\contracts\\CMCOracle.sol",
  "compiler": {
    "name": "solc",
    "version": "0.5.16+commit.9c3226ce.Emscripten.clang"
  },
  "schemaVersion": "3.4.3",
  "updatedAt": "2021-12-07T19:01:42.431Z",
  "networkType": "ethereum",
  "devdoc": {
    "methods": {}
  },
  "userdoc": {
    "methods": {}
  }
}